{
  "address": "0x73Dfc7d8A1319684048D8Fe187cd1c489Fa305c7",
  "abi": [
    {
      "inputs": [
        {
          "internalType": "uint256",
          "name": "_target",
          "type": "uint256"
        },
        {
          "internalType": "uint256",
          "name": "_threshold",
          "type": "uint256"
        },
        {
          "internalType": "uint256",
          "name": "_profitthreshold",
          "type": "uint256"
        }
      ],
      "stateMutability": "nonpayable",
      "type": "constructor"
    },
    {
      "stateMutability": "payable",
      "type": "fallback"
    },
    {
      "inputs": [
        {
          "internalType": "address",
          "name": "",
          "type": "address"
        }
      ],
      "name": "addresstoamtfunded",
      "outputs": [
        {
          "internalType": "uint256",
          "name": "",
          "type": "uint256"
        }
      ],
      "stateMutability": "view",
      "type": "function"
    },
    {
      "inputs": [],
      "name": "buy",
      "outputs": [],
      "stateMutability": "payable",
      "type": "function"
    },
    {
      "inputs": [],
      "name": "buythreshold",
      "outputs": [
        {
          "internalType": "uint256",
          "name": "",
          "type": "uint256"
        }
      ],
      "stateMutability": "view",
      "type": "function"
    },
    {
      "inputs": [],
      "name": "capital",
      "outputs": [
        {
          "internalType": "uint256",
          "name": "",
          "type": "uint256"
        }
      ],
      "stateMutability": "view",
      "type": "function"
    },
    {
      "inputs": [],
      "name": "fund",
      "outputs": [],
      "stateMutability": "payable",
      "type": "function"
    },
    {
      "inputs": [
        {
          "internalType": "uint256",
          "name": "",
          "type": "uint256"
        }
      ],
      "name": "funders",
      "outputs": [
        {
          "internalType": "address",
          "name": "",
          "type": "address"
        }
      ],
      "stateMutability": "view",
      "type": "function"
    },
    {
      "inputs": [
        {
          "internalType": "uint256",
          "name": "",
          "type": "uint256"
        }
      ],
      "name": "funderspercentageinvested",
      "outputs": [
        {
          "internalType": "uint256",
          "name": "",
          "type": "uint256"
        }
      ],
      "stateMutability": "view",
      "type": "function"
    },
    {
      "inputs": [],
      "name": "istargetreached",
      "outputs": [
        {
          "internalType": "bool",
          "name": "",
          "type": "bool"
        }
      ],
      "stateMutability": "view",
      "type": "function"
    },
    {
      "inputs": [],
      "name": "k",
      "outputs": [
        {
          "internalType": "uint256",
          "name": "",
          "type": "uint256"
        }
      ],
      "stateMutability": "view",
      "type": "function"
    },
    {
      "inputs": [],
      "name": "owner",
      "outputs": [
        {
          "internalType": "address",
          "name": "",
          "type": "address"
        }
      ],
      "stateMutability": "view",
      "type": "function"
    },
    {
      "inputs": [],
      "name": "profitbuy",
      "outputs": [
        {
          "internalType": "uint256",
          "name": "",
          "type": "uint256"
        }
      ],
      "stateMutability": "view",
      "type": "function"
    },
    {
      "inputs": [],
      "name": "profitthreshold",
      "outputs": [
        {
          "internalType": "uint256",
          "name": "",
          "type": "uint256"
        }
      ],
      "stateMutability": "view",
      "type": "function"
    },
    {
      "inputs": [],
      "name": "releaseamount",
      "outputs": [
        {
          "internalType": "uint256",
          "name": "",
          "type": "uint256"
        }
      ],
      "stateMutability": "view",
      "type": "function"
    },
    {
      "inputs": [],
      "name": "releasefund",
      "outputs": [],
      "stateMutability": "nonpayable",
      "type": "function"
    },
    {
      "inputs": [],
      "name": "releasefundcalled",
      "outputs": [
        {
          "internalType": "uint8",
          "name": "",
          "type": "uint8"
        }
      ],
      "stateMutability": "view",
      "type": "function"
    },
    {
      "inputs": [],
      "name": "releaseprofitfunds",
      "outputs": [],
      "stateMutability": "nonpayable",
      "type": "function"
    },
    {
      "inputs": [],
      "name": "target",
      "outputs": [
        {
          "internalType": "uint256",
          "name": "",
          "type": "uint256"
        }
      ],
      "stateMutability": "view",
      "type": "function"
    },
    {
      "inputs": [],
      "name": "threshold",
      "outputs": [
        {
          "internalType": "uint256",
          "name": "",
          "type": "uint256"
        }
      ],
      "stateMutability": "view",
      "type": "function"
    },
    {
      "inputs": [],
      "name": "totalbuy",
      "outputs": [
        {
          "internalType": "uint256",
          "name": "",
          "type": "uint256"
        }
      ],
      "stateMutability": "view",
      "type": "function"
    },
    {
      "inputs": [],
      "name": "totalfundraised",
      "outputs": [
        {
          "internalType": "uint256",
          "name": "",
          "type": "uint256"
        }
      ],
      "stateMutability": "view",
      "type": "function"
    },
    {
      "inputs": [],
      "name": "viewbalance",
      "outputs": [
        {
          "internalType": "uint256",
          "name": "",
          "type": "uint256"
        }
      ],
      "stateMutability": "view",
      "type": "function"
    },
    {
      "stateMutability": "payable",
      "type": "receive"
    }
  ],
  "transactionHash": "0x89d683ee36b7f84dd883dbc87002fa60c9b937ffadaf8a77a7993e51cef09b64",
  "args": [
    100000000,
    10000000,
    10000000
  ],
  "numDeployments": 1,
  "solcInputHash": "1ce186b063661896789487bf41c8bbf9",
  "bytecode": "0x60a06040526000600c60006101000a81548160ff021916908360ff1602179055506000600c60016101000a81548160ff0219169083151502179055503480156200004857600080fd5b50604051620015773803806200157783398181016040528101906200006e919062000151565b3373ffffffffffffffffffffffffffffffffffffffff1660808173ffffffffffffffffffffffffffffffffffffffff1660601b8152505082600281905550816008819055506127106103e8600254620000c89190620001dc565b620000d491906200026c565b60098190555080600b819055506127106109c4600254620000f69190620001dc565b6200010291906200026c565b600481905550505050620002a4565b600080fd5b6000819050919050565b6200012b8162000116565b81146200013757600080fd5b50565b6000815190506200014b8162000120565b92915050565b6000806000606084860312156200016d576200016c62000111565b5b60006200017d868287016200013a565b935050602062000190868287016200013a565b9250506040620001a3868287016200013a565b9150509250925092565b7f4e487b7100000000000000000000000000000000000000000000000000000000600052601160045260246000fd5b6000620001e98262000116565b9150620001f68362000116565b9250817fffffffffffffffffffffffffffffffffffffffffffffffffffffffffffffffff0483118215151615620002325762000231620001ad565b5b828202905092915050565b7f4e487b7100000000000000000000000000000000000000000000000000000000600052601260045260246000fd5b6000620002798262000116565b9150620002868362000116565b9250826200029957620002986200023d565b5b828204905092915050565b60805160601c6112a6620002d1600039600081816107f101528181610a4f0152610bc401526112a66000f3fe60806040526004361061012e5760003560e01c80638f860054116100ab578063b4f40c611161006f578063b4f40c61146103a7578063b580c9ec146103d2578063b60d4288146103fd578063d211fd1814610407578063d4b8399214610432578063dc0d3dff1461045d5761013d565b80638f860054146102df578063917312a71461030a578063956dbbe214610347578063a6f2ae3a14610372578063af61ed3d1461037c5761013d565b80632a36d761116100f25780632a36d7611461020a57806342cde4e814610235578063506004c3146102605780635c7d08b5146102775780638da5cb5b146102b45761013d565b806303d9c5b41461014757806305f5eb73146101725780631951fc121461019d57806325a2ef09146101c8578063290f56e9146101f35761013d565b3661013d5761013b61049a565b005b61014561049a565b005b34801561015357600080fd5b5061015c6107c8565b6040516101699190610d91565b60405180910390f35b34801561017e57600080fd5b506101876107ce565b6040516101949190610dc8565b60405180910390f35b3480156101a957600080fd5b506101b26107e1565b6040516101bf9190610d91565b60405180910390f35b3480156101d457600080fd5b506101dd6107e7565b6040516101ea9190610d91565b60405180910390f35b3480156101ff57600080fd5b506102086107ed565b005b34801561021657600080fd5b5061021f6108be565b60405161022c9190610d91565b60405180910390f35b34801561024157600080fd5b5061024a6108c4565b6040516102579190610d91565b60405180910390f35b34801561026c57600080fd5b506102756108ca565b005b34801561028357600080fd5b5061029e60048036038101906102999190610e46565b610a35565b6040516102ab9190610d91565b60405180910390f35b3480156102c057600080fd5b506102c9610a4d565b6040516102d69190610e82565b60405180910390f35b3480156102eb57600080fd5b506102f4610a71565b6040516103019190610d91565b60405180910390f35b34801561031657600080fd5b50610331600480360381019061032c9190610ec9565b610a77565b60405161033e9190610d91565b60405180910390f35b34801561035357600080fd5b5061035c610a9b565b6040516103699190610f11565b60405180910390f35b61037a610aae565b005b34801561038857600080fd5b50610391610b60565b60405161039e9190610d91565b60405180910390f35b3480156103b357600080fd5b506103bc610b68565b6040516103c99190610d91565b60405180910390f35b3480156103de57600080fd5b506103e7610b6e565b6040516103f49190610d91565b60405180910390f35b61040561049a565b005b34801561041357600080fd5b5061041c610b74565b6040516104299190610d91565b60405180910390f35b34801561043e57600080fd5b50610447610b7a565b6040516104549190610d91565b60405180910390f35b34801561046957600080fd5b50610484600480360381019061047f9190610ec9565b610b80565b6040516104919190610e82565b60405180910390f35b60008080548060200260200160405190810160405280929190818152602001828054801561051d57602002820191906000526020600020905b8160009054906101000a900473ffffffffffffffffffffffffffffffffffffffff1673ffffffffffffffffffffffffffffffffffffffff16815260200190600101908083116104d3575b5050505050905060006298968034101561056c576040517f08c379a000000000000000000000000000000000000000000000000000000000815260040161056390610f89565b60405180910390fd5b3460035461057a9190610fd8565b60038190555060005b82518110156106ba5782818151811061059f5761059e61102e565b5b602002602001015173ffffffffffffffffffffffffffffffffffffffff163373ffffffffffffffffffffffffffffffffffffffff1614156106a7576000600160008584815181106105f3576105f261102e565b5b602002602001015173ffffffffffffffffffffffffffffffffffffffff1673ffffffffffffffffffffffffffffffffffffffff16815260200190815260200160002054905034816106449190610fd8565b6001600086858151811061065b5761065a61102e565b5b602002602001015173ffffffffffffffffffffffffffffffffffffffff1673ffffffffffffffffffffffffffffffffffffffff1681526020019081526020016000208190555060019250505b80806106b29061105d565b915050610583565b50600081141561076c576000339080600181540180825580915050600190039060005260206000200160009091909190916101000a81548173ffffffffffffffffffffffffffffffffffffffff021916908373ffffffffffffffffffffffffffffffffffffffff16021790555034600160003373ffffffffffffffffffffffffffffffffffffffff1673ffffffffffffffffffffffffffffffffffffffff168152602001908152602001600020819055505b60025460035410158015610793575060001515600c60019054906101000a900460ff161515145b156107c4576107a0610bbf565b6107a8610c93565b6001600c60016101000a81548160ff0219169083151502179055505b5050565b600a5481565b600c60009054906101000a900460ff1681565b60035481565b600b5481565b60007f000000000000000000000000000000000000000000000000000000000000000073ffffffffffffffffffffffffffffffffffffffff16600954604051610835906110d7565b60006040518083038185875af1925050503d8060008114610872576040519150601f19603f3d011682016040523d82523d6000602084013e610877565b606091505b50509050806108bb576040517f08c379a00000000000000000000000000000000000000000000000000000000081526004016108b290611138565b60405180910390fd5b50565b60095481565b60085481565b60005b600080549050811015610a325760008082815481106108ef576108ee61102e565b5b9060005260206000200160009054906101000a900473ffffffffffffffffffffffffffffffffffffffff1690506000600954600261092d9190611158565b4761093891906111b2565b905060008273ffffffffffffffffffffffffffffffffffffffff1661271083600d878154811061096b5761096a61102e565b5b90600052602060002001546109809190611158565b61098a9190611215565b604051610996906110d7565b60006040518083038185875af1925050503d80600081146109d3576040519150601f19603f3d011682016040523d82523d6000602084013e6109d8565b606091505b5050905080610a1c576040517f08c379a0000000000000000000000000000000000000000000000000000000008152600401610a1390611138565b60405180910390fd5b5050508080610a2a9061105d565b9150506108cd565b50565b60016020528060005260406000206000915090505481565b7f000000000000000000000000000000000000000000000000000000000000000081565b60065481565b600d8181548110610a8757600080fd5b906000526020600020016000915090505481565b600c60019054906101000a900460ff1681565b3460076000828254610ac09190610fd8565b925050819055504760068190555060085460075410158015610af457506007600c60009054906101000a900460ff1660ff16105b15610b4257610b016107ed565b600c600081819054906101000a900460ff1680929190610b2090611246565b91906101000a81548160ff021916908360ff1602179055505060006007819055505b600b5460065410610b5e57610b556108ca565b60006006819055505b565b600047905090565b60055481565b60075481565b60045481565b60025481565b60008181548110610b9057600080fd5b906000526020600020016000915054906101000a900473ffffffffffffffffffffffffffffffffffffffff1681565b6000807f000000000000000000000000000000000000000000000000000000000000000073ffffffffffffffffffffffffffffffffffffffff16600454604051610c08906110d7565b60006040518083038185875af1925050503d8060008114610c45576040519150601f19603f3d011682016040523d82523d6000602084013e610c4a565b606091505b509150915081610c8f576040517f08c379a0000000000000000000000000000000000000000000000000000000008152600401610c8690611138565b60405180910390fd5b5050565b60005b600080549050811015610d7557600d60035461271060016000808681548110610cc257610cc161102e565b5b9060005260206000200160009054906101000a900473ffffffffffffffffffffffffffffffffffffffff1673ffffffffffffffffffffffffffffffffffffffff1673ffffffffffffffffffffffffffffffffffffffff16815260200190815260200160002054610d329190611158565b610d3c9190611215565b90806001815401808255809150506001900390600052602060002001600090919091909150558080610d6d9061105d565b915050610c96565b50565b6000819050919050565b610d8b81610d78565b82525050565b6000602082019050610da66000830184610d82565b92915050565b600060ff82169050919050565b610dc281610dac565b82525050565b6000602082019050610ddd6000830184610db9565b92915050565b600080fd5b600073ffffffffffffffffffffffffffffffffffffffff82169050919050565b6000610e1382610de8565b9050919050565b610e2381610e08565b8114610e2e57600080fd5b50565b600081359050610e4081610e1a565b92915050565b600060208284031215610e5c57610e5b610de3565b5b6000610e6a84828501610e31565b91505092915050565b610e7c81610e08565b82525050565b6000602082019050610e976000830184610e73565b92915050565b610ea681610d78565b8114610eb157600080fd5b50565b600081359050610ec381610e9d565b92915050565b600060208284031215610edf57610ede610de3565b5b6000610eed84828501610eb4565b91505092915050565b60008115159050919050565b610f0b81610ef6565b82525050565b6000602082019050610f266000830184610f02565b92915050565b600082825260208201905092915050565b7f496e73756666696369656e7420416d6f756e7400000000000000000000000000600082015250565b6000610f73601383610f2c565b9150610f7e82610f3d565b602082019050919050565b60006020820190508181036000830152610fa281610f66565b9050919050565b7f4e487b7100000000000000000000000000000000000000000000000000000000600052601160045260246000fd5b6000610fe382610d78565b9150610fee83610d78565b9250827fffffffffffffffffffffffffffffffffffffffffffffffffffffffffffffffff0382111561102357611022610fa9565b5b828201905092915050565b7f4e487b7100000000000000000000000000000000000000000000000000000000600052603260045260246000fd5b600061106882610d78565b91507fffffffffffffffffffffffffffffffffffffffffffffffffffffffffffffffff82141561109b5761109a610fa9565b5b600182019050919050565b600081905092915050565b50565b60006110c16000836110a6565b91506110cc826110b1565b600082019050919050565b60006110e2826110b4565b9150819050919050565b7f4661696c65640000000000000000000000000000000000000000000000000000600082015250565b6000611122600683610f2c565b915061112d826110ec565b602082019050919050565b6000602082019050818103600083015261115181611115565b9050919050565b600061116382610d78565b915061116e83610d78565b9250817fffffffffffffffffffffffffffffffffffffffffffffffffffffffffffffffff04831182151516156111a7576111a6610fa9565b5b828202905092915050565b60006111bd82610d78565b91506111c883610d78565b9250828210156111db576111da610fa9565b5b828203905092915050565b7f4e487b7100000000000000000000000000000000000000000000000000000000600052601260045260246000fd5b600061122082610d78565b915061122b83610d78565b92508261123b5761123a6111e6565b5b828204905092915050565b600061125182610dac565b915060ff82141561126557611264610fa9565b5b60018201905091905056fea264697066735822122061d22d178e3cf5abbed8847ae5b21559827ad6852ca7d0ab7dcbbb75ed2753e664736f6c63430008080033",
  "devdoc": {
    "author": "Jeevan Siddharth",
    "kind": "dev",
    "methods": {},
    "title": "FundMe",
    "version": 1
  },
  "userdoc": {
    "kind": "user",
    "methods": {},
    "notice": "Sample contract*",
    "version": 1
  },
  "storageLayout": {
    "storage": [
      {
        "astId": 7,
        "contract": "contracts/crowdfunding.sol:crowdfunding",
        "label": "funders",
        "offset": 0,
        "slot": "0",
        "type": "t_array(t_address)dyn_storage"
      },
      {
        "astId": 11,
        "contract": "contracts/crowdfunding.sol:crowdfunding",
        "label": "addresstoamtfunded",
        "offset": 0,
        "slot": "1",
        "type": "t_mapping(t_address,t_uint256)"
      },
      {
        "astId": 13,
        "contract": "contracts/crowdfunding.sol:crowdfunding",
        "label": "target",
        "offset": 0,
        "slot": "2",
        "type": "t_uint256"
      },
      {
        "astId": 15,
        "contract": "contracts/crowdfunding.sol:crowdfunding",
        "label": "totalfundraised",
        "offset": 0,
        "slot": "3",
        "type": "t_uint256"
      },
      {
        "astId": 17,
        "contract": "contracts/crowdfunding.sol:crowdfunding",
        "label": "capital",
        "offset": 0,
        "slot": "4",
        "type": "t_uint256"
      },
      {
        "astId": 19,
        "contract": "contracts/crowdfunding.sol:crowdfunding",
        "label": "k",
        "offset": 0,
        "slot": "5",
        "type": "t_uint256"
      },
      {
        "astId": 21,
        "contract": "contracts/crowdfunding.sol:crowdfunding",
        "label": "profitbuy",
        "offset": 0,
        "slot": "6",
        "type": "t_uint256"
      },
      {
        "astId": 23,
        "contract": "contracts/crowdfunding.sol:crowdfunding",
        "label": "totalbuy",
        "offset": 0,
        "slot": "7",
        "type": "t_uint256"
      },
      {
        "astId": 25,
        "contract": "contracts/crowdfunding.sol:crowdfunding",
        "label": "threshold",
        "offset": 0,
        "slot": "8",
        "type": "t_uint256"
      },
      {
        "astId": 27,
        "contract": "contracts/crowdfunding.sol:crowdfunding",
        "label": "releaseamount",
        "offset": 0,
        "slot": "9",
        "type": "t_uint256"
      },
      {
        "astId": 29,
        "contract": "contracts/crowdfunding.sol:crowdfunding",
        "label": "buythreshold",
        "offset": 0,
        "slot": "10",
        "type": "t_uint256"
      },
      {
        "astId": 31,
        "contract": "contracts/crowdfunding.sol:crowdfunding",
        "label": "profitthreshold",
        "offset": 0,
        "slot": "11",
        "type": "t_uint256"
      },
      {
        "astId": 34,
        "contract": "contracts/crowdfunding.sol:crowdfunding",
        "label": "releasefundcalled",
        "offset": 0,
        "slot": "12",
        "type": "t_uint8"
      },
      {
        "astId": 37,
        "contract": "contracts/crowdfunding.sol:crowdfunding",
        "label": "istargetreached",
        "offset": 1,
        "slot": "12",
        "type": "t_bool"
      },
      {
        "astId": 40,
        "contract": "contracts/crowdfunding.sol:crowdfunding",
        "label": "funderspercentageinvested",
        "offset": 0,
        "slot": "13",
        "type": "t_array(t_uint256)dyn_storage"
      }
    ],
    "types": {
      "t_address": {
        "encoding": "inplace",
        "label": "address",
        "numberOfBytes": "20"
      },
      "t_array(t_address)dyn_storage": {
        "base": "t_address",
        "encoding": "dynamic_array",
        "label": "address[]",
        "numberOfBytes": "32"
      },
      "t_array(t_uint256)dyn_storage": {
        "base": "t_uint256",
        "encoding": "dynamic_array",
        "label": "uint256[]",
        "numberOfBytes": "32"
      },
      "t_bool": {
        "encoding": "inplace",
        "label": "bool",
        "numberOfBytes": "1"
      },
      "t_mapping(t_address,t_uint256)": {
        "encoding": "mapping",
        "key": "t_address",
        "label": "mapping(address => uint256)",
        "numberOfBytes": "32",
        "value": "t_uint256"
      },
      "t_uint256": {
        "encoding": "inplace",
        "label": "uint256",
        "numberOfBytes": "32"
      },
      "t_uint8": {
        "encoding": "inplace",
        "label": "uint8",
        "numberOfBytes": "1"
      }
    }
  }
}