{
  "address": "0x05dE0cC3dC50498F6a30D519e033F6DaF37145BD",
  "abi": [
    {
      "inputs": [
        {
          "internalType": "uint256",
          "name": "_target",
          "type": "uint256"
        },
        {
          "internalType": "uint256",
          "name": "_threshold",
          "type": "uint256"
        },
        {
          "internalType": "uint256",
          "name": "_profitthreshold",
          "type": "uint256"
        }
      ],
      "stateMutability": "nonpayable",
      "type": "constructor"
    },
    {
      "stateMutability": "payable",
      "type": "fallback"
    },
    {
      "inputs": [
        {
          "internalType": "address",
          "name": "",
          "type": "address"
        }
      ],
      "name": "addresstoamtfunded",
      "outputs": [
        {
          "internalType": "uint256",
          "name": "",
          "type": "uint256"
        }
      ],
      "stateMutability": "view",
      "type": "function"
    },
    {
      "inputs": [],
      "name": "buy",
      "outputs": [],
      "stateMutability": "payable",
      "type": "function"
    },
    {
      "inputs": [],
      "name": "buythreshold",
      "outputs": [
        {
          "internalType": "uint256",
          "name": "",
          "type": "uint256"
        }
      ],
      "stateMutability": "view",
      "type": "function"
    },
    {
      "inputs": [],
      "name": "capital",
      "outputs": [
        {
          "internalType": "uint256",
          "name": "",
          "type": "uint256"
        }
      ],
      "stateMutability": "view",
      "type": "function"
    },
    {
      "inputs": [],
      "name": "fund",
      "outputs": [],
      "stateMutability": "payable",
      "type": "function"
    },
    {
      "inputs": [
        {
          "internalType": "uint256",
          "name": "",
          "type": "uint256"
        }
      ],
      "name": "funders",
      "outputs": [
        {
          "internalType": "address",
          "name": "",
          "type": "address"
        }
      ],
      "stateMutability": "view",
      "type": "function"
    },
    {
      "inputs": [
        {
          "internalType": "uint256",
          "name": "",
          "type": "uint256"
        }
      ],
      "name": "funderspercentageinvested",
      "outputs": [
        {
          "internalType": "uint256",
          "name": "",
          "type": "uint256"
        }
      ],
      "stateMutability": "view",
      "type": "function"
    },
    {
      "inputs": [],
      "name": "istargetreached",
      "outputs": [
        {
          "internalType": "bool",
          "name": "",
          "type": "bool"
        }
      ],
      "stateMutability": "view",
      "type": "function"
    },
    {
      "inputs": [],
      "name": "k",
      "outputs": [
        {
          "internalType": "uint256",
          "name": "",
          "type": "uint256"
        }
      ],
      "stateMutability": "view",
      "type": "function"
    },
    {
      "inputs": [],
      "name": "owner",
      "outputs": [
        {
          "internalType": "address",
          "name": "",
          "type": "address"
        }
      ],
      "stateMutability": "view",
      "type": "function"
    },
    {
      "inputs": [],
      "name": "profitbuy",
      "outputs": [
        {
          "internalType": "uint256",
          "name": "",
          "type": "uint256"
        }
      ],
      "stateMutability": "view",
      "type": "function"
    },
    {
      "inputs": [],
      "name": "profitthreshold",
      "outputs": [
        {
          "internalType": "uint256",
          "name": "",
          "type": "uint256"
        }
      ],
      "stateMutability": "view",
      "type": "function"
    },
    {
      "inputs": [],
      "name": "releaseamount",
      "outputs": [
        {
          "internalType": "uint256",
          "name": "",
          "type": "uint256"
        }
      ],
      "stateMutability": "view",
      "type": "function"
    },
    {
      "inputs": [],
      "name": "releasefund",
      "outputs": [],
      "stateMutability": "nonpayable",
      "type": "function"
    },
    {
      "inputs": [],
      "name": "releasefundcalled",
      "outputs": [
        {
          "internalType": "uint8",
          "name": "",
          "type": "uint8"
        }
      ],
      "stateMutability": "view",
      "type": "function"
    },
    {
      "inputs": [],
      "name": "releaseprofitfunds",
      "outputs": [],
      "stateMutability": "nonpayable",
      "type": "function"
    },
    {
      "inputs": [],
      "name": "target",
      "outputs": [
        {
          "internalType": "uint256",
          "name": "",
          "type": "uint256"
        }
      ],
      "stateMutability": "view",
      "type": "function"
    },
    {
      "inputs": [],
      "name": "threshold",
      "outputs": [
        {
          "internalType": "uint256",
          "name": "",
          "type": "uint256"
        }
      ],
      "stateMutability": "view",
      "type": "function"
    },
    {
      "inputs": [],
      "name": "totalbuy",
      "outputs": [
        {
          "internalType": "uint256",
          "name": "",
          "type": "uint256"
        }
      ],
      "stateMutability": "view",
      "type": "function"
    },
    {
      "inputs": [],
      "name": "totalfundraised",
      "outputs": [
        {
          "internalType": "uint256",
          "name": "",
          "type": "uint256"
        }
      ],
      "stateMutability": "view",
      "type": "function"
    },
    {
      "inputs": [],
      "name": "viewbalance",
      "outputs": [
        {
          "internalType": "uint256",
          "name": "",
          "type": "uint256"
        }
      ],
      "stateMutability": "view",
      "type": "function"
    },
    {
      "stateMutability": "payable",
      "type": "receive"
    }
  ],
  "transactionHash": "0x55c4d9fadbe495fc138832c7f6e68a98cff60b32981de2b69a8e12b011ae9b51",
  "args": [
    100000000,
    100000000000,
    100000000000000
  ],
  "numDeployments": 2,
  "solcInputHash": "7eca765aa374b766bd859005101a423d",
  "bytecode": "0x60a06040526000600c60006101000a81548160ff021916908360ff1602179055506000600c60016101000a81548160ff0219169083151502179055503480156200004857600080fd5b506040516200157a3803806200157a83398181016040528101906200006e919062000151565b3373ffffffffffffffffffffffffffffffffffffffff1660808173ffffffffffffffffffffffffffffffffffffffff1660601b8152505082600281905550816008819055506127106103e8600254620000c89190620001dc565b620000d491906200026c565b60098190555080600b819055506127106109c4600254620000f69190620001dc565b6200010291906200026c565b600481905550505050620002a4565b600080fd5b6000819050919050565b6200012b8162000116565b81146200013757600080fd5b50565b6000815190506200014b8162000120565b92915050565b6000806000606084860312156200016d576200016c62000111565b5b60006200017d868287016200013a565b935050602062000190868287016200013a565b9250506040620001a3868287016200013a565b9150509250925092565b7f4e487b7100000000000000000000000000000000000000000000000000000000600052601160045260246000fd5b6000620001e98262000116565b9150620001f68362000116565b9250817fffffffffffffffffffffffffffffffffffffffffffffffffffffffffffffffff0483118215151615620002325762000231620001ad565b5b828202905092915050565b7f4e487b7100000000000000000000000000000000000000000000000000000000600052601260045260246000fd5b6000620002798262000116565b9150620002868362000116565b9250826200029957620002986200023d565b5b828204905092915050565b60805160601c6112a9620002d1600039600081816107f401528181610a520152610bc701526112a96000f3fe60806040526004361061012e5760003560e01c80638f860054116100ab578063b4f40c611161006f578063b4f40c61146103a7578063b580c9ec146103d2578063b60d4288146103fd578063d211fd1814610407578063d4b8399214610432578063dc0d3dff1461045d5761013d565b80638f860054146102df578063917312a71461030a578063956dbbe214610347578063a6f2ae3a14610372578063af61ed3d1461037c5761013d565b80632a36d761116100f25780632a36d7611461020a57806342cde4e814610235578063506004c3146102605780635c7d08b5146102775780638da5cb5b146102b45761013d565b806303d9c5b41461014757806305f5eb73146101725780631951fc121461019d57806325a2ef09146101c8578063290f56e9146101f35761013d565b3661013d5761013b61049a565b005b61014561049a565b005b34801561015357600080fd5b5061015c6107cb565b6040516101699190610d94565b60405180910390f35b34801561017e57600080fd5b506101876107d1565b6040516101949190610dcb565b60405180910390f35b3480156101a957600080fd5b506101b26107e4565b6040516101bf9190610d94565b60405180910390f35b3480156101d457600080fd5b506101dd6107ea565b6040516101ea9190610d94565b60405180910390f35b3480156101ff57600080fd5b506102086107f0565b005b34801561021657600080fd5b5061021f6108c1565b60405161022c9190610d94565b60405180910390f35b34801561024157600080fd5b5061024a6108c7565b6040516102579190610d94565b60405180910390f35b34801561026c57600080fd5b506102756108cd565b005b34801561028357600080fd5b5061029e60048036038101906102999190610e49565b610a38565b6040516102ab9190610d94565b60405180910390f35b3480156102c057600080fd5b506102c9610a50565b6040516102d69190610e85565b60405180910390f35b3480156102eb57600080fd5b506102f4610a74565b6040516103019190610d94565b60405180910390f35b34801561031657600080fd5b50610331600480360381019061032c9190610ecc565b610a7a565b60405161033e9190610d94565b60405180910390f35b34801561035357600080fd5b5061035c610a9e565b6040516103699190610f14565b60405180910390f35b61037a610ab1565b005b34801561038857600080fd5b50610391610b63565b60405161039e9190610d94565b60405180910390f35b3480156103b357600080fd5b506103bc610b6b565b6040516103c99190610d94565b60405180910390f35b3480156103de57600080fd5b506103e7610b71565b6040516103f49190610d94565b60405180910390f35b61040561049a565b005b34801561041357600080fd5b5061041c610b77565b6040516104299190610d94565b60405180910390f35b34801561043e57600080fd5b50610447610b7d565b6040516104549190610d94565b60405180910390f35b34801561046957600080fd5b50610484600480360381019061047f9190610ecc565b610b83565b6040516104919190610e85565b60405180910390f35b60008080548060200260200160405190810160405280929190818152602001828054801561051d57602002820191906000526020600020905b8160009054906101000a900473ffffffffffffffffffffffffffffffffffffffff1673ffffffffffffffffffffffffffffffffffffffff16815260200190600101908083116104d3575b5050505050905060006509184e72a00034101561056f576040517f08c379a000000000000000000000000000000000000000000000000000000000815260040161056690610f8c565b60405180910390fd5b3460035461057d9190610fdb565b60038190555060005b82518110156106bd578281815181106105a2576105a1611031565b5b602002602001015173ffffffffffffffffffffffffffffffffffffffff163373ffffffffffffffffffffffffffffffffffffffff1614156106aa576000600160008584815181106105f6576105f5611031565b5b602002602001015173ffffffffffffffffffffffffffffffffffffffff1673ffffffffffffffffffffffffffffffffffffffff16815260200190815260200160002054905034816106479190610fdb565b6001600086858151811061065e5761065d611031565b5b602002602001015173ffffffffffffffffffffffffffffffffffffffff1673ffffffffffffffffffffffffffffffffffffffff1681526020019081526020016000208190555060019250505b80806106b590611060565b915050610586565b50600081141561076f576000339080600181540180825580915050600190039060005260206000200160009091909190916101000a81548173ffffffffffffffffffffffffffffffffffffffff021916908373ffffffffffffffffffffffffffffffffffffffff16021790555034600160003373ffffffffffffffffffffffffffffffffffffffff1673ffffffffffffffffffffffffffffffffffffffff168152602001908152602001600020819055505b60025460035410158015610796575060001515600c60019054906101000a900460ff161515145b156107c7576107a3610bc2565b6107ab610c96565b6001600c60016101000a81548160ff0219169083151502179055505b5050565b600a5481565b600c60009054906101000a900460ff1681565b60035481565b600b5481565b60007f000000000000000000000000000000000000000000000000000000000000000073ffffffffffffffffffffffffffffffffffffffff16600954604051610838906110da565b60006040518083038185875af1925050503d8060008114610875576040519150601f19603f3d011682016040523d82523d6000602084013e61087a565b606091505b50509050806108be576040517f08c379a00000000000000000000000000000000000000000000000000000000081526004016108b59061113b565b60405180910390fd5b50565b60095481565b60085481565b60005b600080549050811015610a355760008082815481106108f2576108f1611031565b5b9060005260206000200160009054906101000a900473ffffffffffffffffffffffffffffffffffffffff16905060006009546002610930919061115b565b4761093b91906111b5565b905060008273ffffffffffffffffffffffffffffffffffffffff1661271083600d878154811061096e5761096d611031565b5b9060005260206000200154610983919061115b565b61098d9190611218565b604051610999906110da565b60006040518083038185875af1925050503d80600081146109d6576040519150601f19603f3d011682016040523d82523d6000602084013e6109db565b606091505b5050905080610a1f576040517f08c379a0000000000000000000000000000000000000000000000000000000008152600401610a169061113b565b60405180910390fd5b5050508080610a2d90611060565b9150506108d0565b50565b60016020528060005260406000206000915090505481565b7f000000000000000000000000000000000000000000000000000000000000000081565b60065481565b600d8181548110610a8a57600080fd5b906000526020600020016000915090505481565b600c60019054906101000a900460ff1681565b3460076000828254610ac39190610fdb565b925050819055504760068190555060085460075410158015610af757506007600c60009054906101000a900460ff1660ff16105b15610b4557610b046107f0565b600c600081819054906101000a900460ff1680929190610b2390611249565b91906101000a81548160ff021916908360ff1602179055505060006007819055505b600b5460065410610b6157610b586108cd565b60006006819055505b565b600047905090565b60055481565b60075481565b60045481565b60025481565b60008181548110610b9357600080fd5b906000526020600020016000915054906101000a900473ffffffffffffffffffffffffffffffffffffffff1681565b6000807f000000000000000000000000000000000000000000000000000000000000000073ffffffffffffffffffffffffffffffffffffffff16600454604051610c0b906110da565b60006040518083038185875af1925050503d8060008114610c48576040519150601f19603f3d011682016040523d82523d6000602084013e610c4d565b606091505b509150915081610c92576040517f08c379a0000000000000000000000000000000000000000000000000000000008152600401610c899061113b565b60405180910390fd5b5050565b60005b600080549050811015610d7857600d60035461271060016000808681548110610cc557610cc4611031565b5b9060005260206000200160009054906101000a900473ffffffffffffffffffffffffffffffffffffffff1673ffffffffffffffffffffffffffffffffffffffff1673ffffffffffffffffffffffffffffffffffffffff16815260200190815260200160002054610d35919061115b565b610d3f9190611218565b90806001815401808255809150506001900390600052602060002001600090919091909150558080610d7090611060565b915050610c99565b50565b6000819050919050565b610d8e81610d7b565b82525050565b6000602082019050610da96000830184610d85565b92915050565b600060ff82169050919050565b610dc581610daf565b82525050565b6000602082019050610de06000830184610dbc565b92915050565b600080fd5b600073ffffffffffffffffffffffffffffffffffffffff82169050919050565b6000610e1682610deb565b9050919050565b610e2681610e0b565b8114610e3157600080fd5b50565b600081359050610e4381610e1d565b92915050565b600060208284031215610e5f57610e5e610de6565b5b6000610e6d84828501610e34565b91505092915050565b610e7f81610e0b565b82525050565b6000602082019050610e9a6000830184610e76565b92915050565b610ea981610d7b565b8114610eb457600080fd5b50565b600081359050610ec681610ea0565b92915050565b600060208284031215610ee257610ee1610de6565b5b6000610ef084828501610eb7565b91505092915050565b60008115159050919050565b610f0e81610ef9565b82525050565b6000602082019050610f296000830184610f05565b92915050565b600082825260208201905092915050565b7f496e73756666696369656e7420416d6f756e7400000000000000000000000000600082015250565b6000610f76601383610f2f565b9150610f8182610f40565b602082019050919050565b60006020820190508181036000830152610fa581610f69565b9050919050565b7f4e487b7100000000000000000000000000000000000000000000000000000000600052601160045260246000fd5b6000610fe682610d7b565b9150610ff183610d7b565b9250827fffffffffffffffffffffffffffffffffffffffffffffffffffffffffffffffff0382111561102657611025610fac565b5b828201905092915050565b7f4e487b7100000000000000000000000000000000000000000000000000000000600052603260045260246000fd5b600061106b82610d7b565b91507fffffffffffffffffffffffffffffffffffffffffffffffffffffffffffffffff82141561109e5761109d610fac565b5b600182019050919050565b600081905092915050565b50565b60006110c46000836110a9565b91506110cf826110b4565b600082019050919050565b60006110e5826110b7565b9150819050919050565b7f4661696c65640000000000000000000000000000000000000000000000000000600082015250565b6000611125600683610f2f565b9150611130826110ef565b602082019050919050565b6000602082019050818103600083015261115481611118565b9050919050565b600061116682610d7b565b915061117183610d7b565b9250817fffffffffffffffffffffffffffffffffffffffffffffffffffffffffffffffff04831182151516156111aa576111a9610fac565b5b828202905092915050565b60006111c082610d7b565b91506111cb83610d7b565b9250828210156111de576111dd610fac565b5b828203905092915050565b7f4e487b7100000000000000000000000000000000000000000000000000000000600052601260045260246000fd5b600061122382610d7b565b915061122e83610d7b565b92508261123e5761123d6111e9565b5b828204905092915050565b600061125482610daf565b915060ff82141561126857611267610fac565b5b60018201905091905056fea2646970667358221220223196842c975fa8e2512900d6e11fd29a69869d0e341bfde27ce8e61dbbda1d64736f6c63430008080033",
  "devdoc": {
    "author": "Jeevan Siddharth",
    "kind": "dev",
    "methods": {},
    "title": "FundMe",
    "version": 1
  },
  "userdoc": {
    "kind": "user",
    "methods": {},
    "notice": "Sample contract*",
    "version": 1
  },
  "storageLayout": {
    "storage": [
      {
        "astId": 7,
        "contract": "contracts/crowdfunding.sol:crowdfunding",
        "label": "funders",
        "offset": 0,
        "slot": "0",
        "type": "t_array(t_address)dyn_storage"
      },
      {
        "astId": 11,
        "contract": "contracts/crowdfunding.sol:crowdfunding",
        "label": "addresstoamtfunded",
        "offset": 0,
        "slot": "1",
        "type": "t_mapping(t_address,t_uint256)"
      },
      {
        "astId": 13,
        "contract": "contracts/crowdfunding.sol:crowdfunding",
        "label": "target",
        "offset": 0,
        "slot": "2",
        "type": "t_uint256"
      },
      {
        "astId": 15,
        "contract": "contracts/crowdfunding.sol:crowdfunding",
        "label": "totalfundraised",
        "offset": 0,
        "slot": "3",
        "type": "t_uint256"
      },
      {
        "astId": 17,
        "contract": "contracts/crowdfunding.sol:crowdfunding",
        "label": "capital",
        "offset": 0,
        "slot": "4",
        "type": "t_uint256"
      },
      {
        "astId": 19,
        "contract": "contracts/crowdfunding.sol:crowdfunding",
        "label": "k",
        "offset": 0,
        "slot": "5",
        "type": "t_uint256"
      },
      {
        "astId": 21,
        "contract": "contracts/crowdfunding.sol:crowdfunding",
        "label": "profitbuy",
        "offset": 0,
        "slot": "6",
        "type": "t_uint256"
      },
      {
        "astId": 23,
        "contract": "contracts/crowdfunding.sol:crowdfunding",
        "label": "totalbuy",
        "offset": 0,
        "slot": "7",
        "type": "t_uint256"
      },
      {
        "astId": 25,
        "contract": "contracts/crowdfunding.sol:crowdfunding",
        "label": "threshold",
        "offset": 0,
        "slot": "8",
        "type": "t_uint256"
      },
      {
        "astId": 27,
        "contract": "contracts/crowdfunding.sol:crowdfunding",
        "label": "releaseamount",
        "offset": 0,
        "slot": "9",
        "type": "t_uint256"
      },
      {
        "astId": 29,
        "contract": "contracts/crowdfunding.sol:crowdfunding",
        "label": "buythreshold",
        "offset": 0,
        "slot": "10",
        "type": "t_uint256"
      },
      {
        "astId": 31,
        "contract": "contracts/crowdfunding.sol:crowdfunding",
        "label": "profitthreshold",
        "offset": 0,
        "slot": "11",
        "type": "t_uint256"
      },
      {
        "astId": 34,
        "contract": "contracts/crowdfunding.sol:crowdfunding",
        "label": "releasefundcalled",
        "offset": 0,
        "slot": "12",
        "type": "t_uint8"
      },
      {
        "astId": 37,
        "contract": "contracts/crowdfunding.sol:crowdfunding",
        "label": "istargetreached",
        "offset": 1,
        "slot": "12",
        "type": "t_bool"
      },
      {
        "astId": 40,
        "contract": "contracts/crowdfunding.sol:crowdfunding",
        "label": "funderspercentageinvested",
        "offset": 0,
        "slot": "13",
        "type": "t_array(t_uint256)dyn_storage"
      }
    ],
    "types": {
      "t_address": {
        "encoding": "inplace",
        "label": "address",
        "numberOfBytes": "20"
      },
      "t_array(t_address)dyn_storage": {
        "base": "t_address",
        "encoding": "dynamic_array",
        "label": "address[]",
        "numberOfBytes": "32"
      },
      "t_array(t_uint256)dyn_storage": {
        "base": "t_uint256",
        "encoding": "dynamic_array",
        "label": "uint256[]",
        "numberOfBytes": "32"
      },
      "t_bool": {
        "encoding": "inplace",
        "label": "bool",
        "numberOfBytes": "1"
      },
      "t_mapping(t_address,t_uint256)": {
        "encoding": "mapping",
        "key": "t_address",
        "label": "mapping(address => uint256)",
        "numberOfBytes": "32",
        "value": "t_uint256"
      },
      "t_uint256": {
        "encoding": "inplace",
        "label": "uint256",
        "numberOfBytes": "32"
      },
      "t_uint8": {
        "encoding": "inplace",
        "label": "uint8",
        "numberOfBytes": "1"
      }
    }
  }
}